:020000040800F2
:1000000008070020A5020008E91F0008F11E0008EB
:10001000E51F00089D040008152C000800000000E2
:10002000000000000000000000000000F9200008AF
:10003000A104000800000000592000085121000818
:10004000BF020008BF020008BF020008BF0200088C
:10005000BF020008BF020008BF020008BF0200087C
:10006000BF020008BF020008BF020008BF0200086C
:10007000BF020008BF020008BF020008BF0200085C
:10008000BF02000800000000BF020008BF02000815
:10009000BF020008BF020008BF020008BF0200083C
:1000A000BF020008BF020008BF020008BF0200082C
:1000B000BF020008BF020008BF020008BF0200081C
:1000C000BF020008BF020008BF020008BF0200080C
:1000D000BF020008BF020008BF020008BF020008FC
:1000E000BF020008BF020008BF020008BF020008EC
:1000F000BF020008BF020008BF02000800000000A5
:1001000000000000BF02000800000000BF0200085D
:10011000BF02000800000000BF020008BF02000884
:10012000BF020008BF020008BF020008BF020008AB
:10013000BF0200080000000000000000BF0200082D
:10014000BF020008BF02000800000000000000001D
:10015000000000000000000000000000000000009F
:10016000000000000000000000000000BF020008C6
:10017000BF020008000000000000000000000000B6
:1001800000000000BF0200080000000000000000A6
:10019000000000000000000000000000000000005F
:1001A0000000000000000000BF020008BF020008BD
:1001B000BF020008BF020008BF02000800000000E4
:1001C00000000000BF020008000000000000000066
:1001D000BF020008BF02000800F002F800F052F869
:1001E00014A696E8000CB244B344DA4501D100F0FD
:1001F00049F8BAE80F000FA696E83000A5EB040511
:1002000004EB0607AAEB0704A7F101074FEA15154F
:100210004FEA3414A4F10104AC4201D300F032F8E7
:1002200013F0010F18BFFB1A43F0010300F001F8AF
:10023000DBE71847EC2A00000C2B0000103A24BF23
:1002400078C878C1FAD8520724BF30C830C144BF3B
:1002500004680C6070470000704700000023002411
:1002600000250026103A28BF78C1FBD8520728BFC6
:1002700030C148BF0B6070471FB502F023FD1FBDA2
:1002800010B510BD00F0D0F81146FFF7F5FF02F0F1
:100290000BFD00F0EEF803B4FFF7F2FF03BC00F033
:1002A000F5F800000948804709480047FEE7FEE7E7
:1002B000FEE7FEE7FEE7FEE7FEE7FEE7FEE7FEE716
:1002C00004480549054A064B70470000CD21000847
:1002D000D9010008080100200807002008030020B9
:1002E0000803002053EA020C00F069802DE9F04B6E
:1002F0004FF00006002B1FBFB3FA83F503FA05F495
:1003000024FA05F65E4012BF1643B2FA82F502FAED
:1003100005F4C5F120051EBF22FA05FC44EA0C04D1
:10032000203556EA044C4FEA144418BF641C4FF0C1
:1003300000084FF00009904271EB030C39D30029FB
:1003400019BFB1FA81F701FA07F6B0FA80F700FA9F
:1003500007F6C7F120071EBF20FA07FC46EA0C0685
:100360002037B6FBF4FCA7EB0507103F07F01F0B87
:10037000CBF120062CFA06F60CFA0BFB44BFB34671
:100380000026202FA4BF5E464FF0000B5BEA060C50
:1003900008BF4FF0010B19EB0B0948EB0608ABFB4C
:1003A000027C06FB02CC0BFB03CCC01B71EB0C01E7
:1003B000C1E70B46024641464846BDE8F08B13B5FF
:1003C000084318BF4FF0FF300146AFF30080BDE88F
:1003D0001C4070474FF0000200B513469446964605
:1003E000203922BFA0E80C50A0E80C50B1F1200148
:1003F000BFF4F7AF090728BFA0E80C5048BF0CC0F6
:100400005DF804EB890028BF40F8042B08BF704753
:1004100048BF20F8022B11F0804F18BF00F8012BC5
:100420007047704770477047754600F02BF8AE462E
:1004300005006946534620F00700854618B020B5F0
:10044000FFF73EFFBDE820404FF000064FF00007E9
:100450004FF000084FF0000BAC46ACE8C009ACE828
:10046000C009ACE8C009ACE8C00921F007018D461D
:10047000704710B50446AFF300802046BDE8104039
:10048000FFF709BF004870471000002001491820FD
:10049000ABBEFEE72600020070470000FFE7FEE764
:1004A0007047000081B0EFF3108072B60090FFE754
:1004B000FEE700008BB00A90099100200890FFE74A
:1004C000099800680899C840002800F0B181FFE74A
:1004D00009980068089A0121914008400790079800
:1004E000002800F0A181FFE70998406800F00300B0
:1004F000012807D0FFE70998406800F003000228B0
:100500002FD1FFE70A9880680690089841000320E1
:1005100000FA01F10698884306900998C068089986
:10052000490000FA01F106980843069006980A99D6
:1005300088600A98406806900899012000FA01F145
:1005400006988843069009984068C0F300100899FF
:1005500000FA01F106980843069006980A99486047
:10056000FFE70998406800F0030003280CD1FFE77B
:100570000998406800F0030003281DD1FFE709989F
:100580008068012818D0FFE70A98C068069008988C
:100590004100032000FA01F106988843069009986B
:1005A00080680899490000FA01F10698084306900E
:1005B00006980A99C860FFE70998406800F00300B0
:1005C000022826D1FFE70A9808996FF0030202EA91
:1005D00051010844006A0690089800F00700810065
:1005E0000F2000FA01F106988843069009980069E7
:1005F000089901F00701890000FA01F10698084303
:10060000069006980A99089B02EA53021144086270
:10061000FFE70A980068069008984100032000FA56
:1006200001F10698884306900998406800F003009D
:100630000899490000FA01F10698084306900698C7
:100640000A990860099880798007002800F0EB80FB
:10065000FFE7FFE741F26000C4F20200016841F0E9
:1006600001010160006800F0010005900598FFE7B6
:10067000089820F003000821C4F2010140580690B8
:10068000089800F0030081000F2000FA01F106989D
:10069000884306900A98B0F1904F03D1FFE70020FD
:1006A000049042E00A9840F20041C4F600018842FA
:1006B00003D1FFE70120039034E00A9840F60001DF
:1006C000C4F60001884203D1FFE70220029026E031
:1006D0000A9840F60041C4F60001884203D1FFE7C2
:1006E0000320019018E00A9841F20001C4F60001CD
:1006F000884203D1FFE7042000900AE00A9941F202
:100700000042C4F600020620914208BF0520009076
:10071000FFE700980190FFE701980290FFE7029839
:100720000390FFE703980490FFE70498089901F00D
:100730000301890000FA01F1069808430690069823
:10074000089921F003010822C4F20102885040F206
:100750000840C4F201000068069007990698884393
:10076000069009988079C006002805D5FFE707990B
:10077000069808430690FFE7069840F20841C4F245
:100780000101086040F20C40C4F2010000680690CC
:100790000799069888430690099880798006002872
:1007A00005D5FFE70799069808430690FFE70698E6
:1007B00040F20C41C4F20101086040F20440C4F26E
:1007C00001000068069007990698884306900998EA
:1007D00080798007002805D5FFE707990698084328
:1007E0000690FFE7069840F20441C4F20101086058
:1007F00040F20040C4F20100006806900799069894
:100800008843069009988079C00728B1FFE70799C7
:10081000069808430690FFE7069840F20041C4F2AC
:1008200001010860FFE7FFE708980130089047E6FC
:100830000BB0704740F20410C2F20000006870472D
:1008400040F20400C2F20000026840F20411C2F259
:1008500000010868104408607047000080B582B04D
:1008600000208DF80700032000F090F80F2000F022
:100870000DF820B1FFE701208DF8070002E000F03D
:1008800049F8FFE79DF8070002B080BD80B582B04F
:10089000019000208DF8030040F20400C2F2000035
:1008A000006878B3FFE740F20000C2F20000006881
:1008B00040F20401C2F200010A684FF47A71B1FB00
:1008C000F2F1B0FBF1F001F097F9B0B9FFE7019850
:1008D0000F280DD8FFE701994FF0FF30002200F0FC
:1008E0003DF8019840F20801C2F20001086003E0FF
:1008F00001208DF80300FFE703E001208DF80300DD
:10090000FFE703E001208DF80300FFE79DF80300F7
:1009100002B080BD80B582B0FFE741F26000C4F252
:100920000200016841F001010160006800F001006F
:1009300001900198FFE7FFE741F25800C4F202007E
:10094000016841F080510160006800F08050009023
:100950000098FFE700F0FCF802B080BD80B586B0DB
:100960008DF817000491039202F056F902909DF958
:100970001700019002980499039A01F037FB014691
:10098000019802F051F906B080BD000080B582B038
:100990000190019802F06AF902B080BD85B0039021
:1009A000039800285ED1FFE747F20000C4F2000080
:1009B000006800F4C060B0F5806F49D1FFE747F2EE
:1009C0008001C4F20001086820F48070086047F2DA
:1009D0000002C4F200021168012060F34A21116094
:1009E00040F20001C2F200010968322251434DF683
:1009F0008362C4F21B32A1FB022100EB9140029002
:100A0000FFE747F21400C4F2000001680020490526
:100A10000029019006D5FFE70298002818BF0120A1
:100A20000190FFE70198C00720B1FFE70298013865
:100A30000290E6E747F21400C4F2000000684005A7
:100A4000002804D5FFE703208DF813007CE008E0C0
:100A500047F28001C4F20001086820F48070086049
:100A6000FFE76DE00398B0F5007F5ED1FFE747F246
:100A70000000C4F20000006800F4C060B0F5806FB0
:100A800049D1FFE747F28001C4F20001086840F451
:100A90008070086047F20002C4F200021168012071
:100AA00060F34A21116040F20001C2F200010968BE
:100AB000322251434DF68362C4F21B32A1FB022164
:100AC00000EB91400290FFE747F21400C4F20000EF
:100AD0000168002049050029009006D5FFE702982B
:100AE000002818BF01200090FFE70098C00720B140
:100AF000FFE7029801380290E6E747F21400C4F2DB
:100B0000000000684005002804D5FFE703208DF8A9
:100B1000130019E008E047F28001C4F20001086800
:100B200040F480700860FFE709E047F20001C4F27A
:100B300000010868022262F34A200860FFE7FFE72D
:100B400000208DF81300FFE79DF8130005B07047F3
:100B500047F20801C4F20001086840F480400860D0
:100B60007047000080B586B0059000208DF80B001E
:100B70008DF80A00059880780007002840F1B580BC
:100B8000FFE700208DF8090041F25800C4F202008E
:100B90000068C000002813D4FFE7FFE741F25800C7
:100BA000C4F20200016841F080510160006800F069
:100BB000805001900198FFE701208DF80900FFE7C0
:100BC00047F20001C4F20001086840F48070086038
:100BD000FFF730FE0390FFE747F20000C4F2000089
:100BE0000068C00500280CD4FFE7FFF723FE039937
:100BF000401A032804D3FFE703208DF80B0000E020
:100C0000EAE79DF80B0000285BD1FFE741F2900076
:100C1000C4F20200006800F4407004900498C8B167
:100C2000FFE704980599096C884213D0FFE741F269
:100C30009001C4F20201086820F440700490086832
:100C400040F480300860086820F480300860049820
:100C50000860FFE79DF81000C007E0B1FFE7FFF76D
:100C6000E9FD0390FFE741F29000C4F20200006842
:100C7000800700280ED4FFE7FFF7DCFD0399401A38
:100C800041F28931884204D3FFE703208DF80B003D
:100C900000E0E8E7FFE79DF80B0060B9FFE741F2ED
:100CA0009001C4F20201086820F44070059A126CA9
:100CB0001043086004E09DF80B008DF80A00FFE780
:100CC00004E09DF80B008DF80A00FFE79DF809008D
:100CD000012809D1FFE741F25801C4F20201086876
:100CE00020F080500860FFE7FFE705980078C00714
:100CF00060B1FFE741F28801C4F20201086820F008
:100D00000300059A526810430860FFE705980078D1
:100D1000800700280CD5FFE741F28801C4F20201E8
:100D2000086820F00C00059A926810430860FFE7FD
:100D300005980078400700280CD5FFE741F28801AC
:100D4000C4F20201086820F03000059AD26810430E
:100D50000860FFE705980078000700280CD5FFE73A
:100D600041F28801C4F20201086820F0C000059A2F
:100D7000126910430860FFE7059800788006002894
:100D80000CD5FFE741F28801C4F20201086820F4A3
:100D90004060059A526910430860FFE705980078A3
:100DA000400600280CD5FFE741F28801C4F2020199
:100DB000086820F44050059A926910430860FFE7E4
:100DC00005980078000600280CD5FFE741F288015D
:100DD000C4F20201086820F44040059AD269104329
:100DE0000860FFE705984078C00760B1FFE741F26F
:100DF0008801C4F20201086820F44030059A126AA2
:100E000010430860FFE705984078800700280CD55C
:100E1000FFE741F28801C4F20201086820F4402093
:100E2000059A526A10430860FFE70598407840072A
:100E300000281BD5FFE741F28801C4F202010868CF
:100E400020F44010059A926A104308600598806A61
:100E5000B0F5801F09D1FFE741F20C01C4F2020195
:100E6000086840F480100860FFE7FFE705984078C5
:100E7000000700281BD5FFE741F28801C4F20201F8
:100E8000086820F44000059AD26A1043086005986B
:100E9000C06AB0F5800F09D1FFE741F20C01C4F23E
:100EA0000201086840F480100860FFE7FFE705983A
:100EB0004078C00600281BD5FFE741F28801C4F244
:100EC0000201086820F04070059A126B1043086018
:100ED0000598006BB0F1807F09D1FFE741F20C016A
:100EE000C4F20201086840F480100860FFE7FFE7E1
:100EF00005984078800600281BD5FFE741F288015D
:100F0000C4F20201086820F04060059A526B104359
:100F100008600598406BB0F1006F09D1FFE741F21E
:100F20000C01C4F20201086840F480100860FFE779
:100F3000FFE705984078400600281BD5FFE741F2FF
:100F40008801C4F20201086820F04060059A926BA3
:100F5000104308600598806BB0F1006F09D1FFE77E
:100F600041F20C01C4F20201086840F480100860EC
:100F7000FFE7FFE705984078000600281BD5FFE74C
:100F800041F28801C4F20201086820F04050059A3D
:100F9000D26B104308600598C06BB0F1805F09D137
:100FA000FFE741F20C01C4F20201086840F480300E
:100FB0000860FFE7FFE79DF80A0006B080BD00006B
:100FC00080B586B00490039100200090049820B969
:100FD000FFE701208DF8170081E1039842F200013C
:100FE000C4F20201096801F00F01884216D9FFE737
:100FF00042F20000C4F20200016821F00F01039ADE
:1010000011430160006800F00F000399884204D08A
:10101000FFE701208DF8170061E1FFE704980078F1
:10102000C007002800F0A380FFE704984068032869
:1010300039D1FFE741F20000C4F2020000688001EC
:10104000002804D4FFE701208DF8170047E101F0E4
:1010500005F8019001984BF20141C0F2C441884269
:1010600020D3FFE741F20800C4F20200006810F04C
:10107000F00F0AD0FFE7049800788007002810D509
:10108000FFE70498806860B9FFE741F20801C4F205
:1010900002010868082262F30710086080200090AF
:1010A000FFE7FFE738E00498406802280ED1FFE729
:1010B00041F20000C4F2020000688003002804D45A
:1010C000FFE701208DF8170009E10DE041F2000073
:1010D000C4F2020000684005002804D4FFE70120A4
:1010E0008DF81700FBE0FFE700F02CF90190019864
:1010F0004BF20141C0F2C44188420CD3FFE741F2F8
:101100000801C4F202010868082262F307100860AF
:1011100080200090FFE7FFE741F20801C4F20201DE
:10112000086820F00300049A526810430860FFF733
:1011300081FB0290FFE741F20800C4F20200006860
:1011400000F00C0004994968B0EB810F0ED0FFE766
:10115000FFF770FB0299401A41F28931884204D3AB
:10116000FFE703208DF81700B9E0E4E7FFE70498F4
:101170000078800700282CD5FFE704980078400706
:10118000002809D5FFE741F20801C4F2020108680E
:1011900040F4E0600860FFE704980078000700284A
:1011A0000BD5FFE741F20801C4F20201086840F4E0
:1011B000E06020F460500860FFE741F20801C4F2EB
:1011C0000201086820F0F000049A92681043086059
:1011D0000DE00098802809D1FFE741F20801C4F230
:1011E0000201086820F0F0000860FFE7FFE70398BD
:1011F00042F20001C4F20201096801F00F018842C5
:1012000028D2FFE742F20001C4F20201086820F090
:101210000F00039A10430860FFF70CFB0290FFE7F2
:1012200042F20000C4F20200006800F00F000399CF
:1012300088420ED0FFE7FFF7FDFA0299401A41F20B
:101240008931884204D3FFE703208DF8170046E078
:10125000E6E7FFE704980078400700280CD5FFE791
:1012600041F20801C4F20201086820F4E060049A27
:10127000D26810430860FFE7049800780007002850
:101280000DD5FFE741F20801C4F20201086820F41D
:101290006050049A126940EAC2000860FFE700F05B
:1012A00051F841F20801C4F202010968C9B20A0901
:1012B00042F6DE41C0F60001895C01F01F01C84022
:1012C00040F20001C2F20001086040F20800C2F2E0
:1012D00000000068FFF7DAFA8DF81700FFE79DF8C5
:1012E000170006B080BD000040F20000C2F200000E
:1012F0000068704780B5FFF7F7FF41F20801C4F2BC
:1013000002010968C1F3022242F6EE41C0F6000173
:10131000895C01F01F01C84080BD000080B5FFF767
:10132000E3FF41F20801C4F202010968C1F3C222DD
:1013300042F6EE41C0F60001895C01F01F01C84091
:1013400080BD000086B041F20800C4F202000068CF
:1013500000F00C00042806D1FFE742F20040C0F282
:10136000F400019069E041F20800C4F20200006854
:1013700000F00C00082806D1FFE741F20020C0F27F
:101380007A00019058E041F20800C4F202000068BF
:1013900000F00C000C284BD1FFE741F20C00C4F226
:1013A0000200016801F0030104910068C1B201204C
:1013B00000EB1110029004980090022815D0FFE76E
:1013C0000098032812D1FFE7029941F20020C0F2F1
:1013D0007A00B0FBF1F041F20C01C4F2020109689D
:1013E000C1F306214843059011E0FFE7029942F25C
:1013F0000040C0F2F400B0FBF1F041F20C01C4F285
:1014000002010968C1F3062148430590FFE741F254
:101410000C00C4F20200006800F0C061022000EB82
:101420001160039005980399B0FBF1F0019002E080
:1014300000200190FFE7FFE7FFE7019806B0704743
:10144000B0B588B00690069820B9FFE701208DF866
:101450001F00CCE306980078C007002800F09B80AE
:10146000FFE741F20800C4F20200006800F00C003F
:10147000049041F20C00C4F20200006800F0030086
:10148000039004980C2804D1FFE70398032804D0A4
:10149000FFE70498082812D1FFE741F20000C4F2E8
:1014A000020000688003002808D5FFE7069840681E
:1014B00020B9FFE701208DF81F0098E36AE0FFE7FD
:1014C00006984068B0F5803F09D1FFE741F200017E
:1014D000C4F20201086840F48030086020E00698F9
:1014E0004068B0F5A02F0DD1FFE741F20001C4F232
:1014F0000201086840F480200860086840F48030E9
:1015000008600CE041F20001C4F20201086820F416
:1015100080300860086820F480200860FFE7FFE75B
:10152000FFE706984068D0B1FFE7FFF783F9059021
:10153000FFE741F20000C4F20200006880030028C7
:101540000CD4FFE7FFF776F90599401A652804D314
:10155000FFE703208DF81F0049E3EAE719E0FFF7F2
:1015600069F90590FFE741F20000C4F2020000684B
:10157000800300280CD5FFE7FFF75CF90599401AB6
:10158000652804D3FFE703208DF81F002FE3EAE767
:10159000FFE7FFE7FFE7069800788007002840F1A3
:1015A0009F80FFE741F20800C4F20200006800F0EB
:1015B0000C00049041F20C00C4F20200006800F03C
:1015C0000300039004980C2804D1FFE70398022835
:1015D00004D0FFE7049804282CD1FFE741F2000073
:1015E000C4F2020000684005002808D5FFE706980D
:1015F000C06820B9FFE701208DF81F00F7E241F233
:101600000401C4F20201086820F0FE40069A126943
:1016100040EA0260086040F20800C2F20000006880
:10162000FFF734F920B1FFE701208DF81F00DEE25B
:10163000FFE754E00698C06870B3FFE741F200018D
:10164000C4F20201086840F480700860FFF7F2F805
:101650000590FFE741F20000C4F202000068400577
:1016600000280CD4FFE7FFF7E5F80599401A032896
:1016700004D3FFE703208DF81F00B8E2EAE741F248
:101680000401C4F20201086820F0FE40069A1269C3
:1016900040EA0260086021E041F20001C4F2020168
:1016A000086820F480700860FFF7C4F80590FFE731
:1016B00041F20000C4F202000068400500280CD589
:1016C000FFE7FFF7B7F80599401A032804D3FFE7AF
:1016D00003208DF81F008AE2EAE7FFE7FFE7FFE754
:1016E000069800780007002849D5FFE7069840696A
:1016F00010B3FFE741F29401C4F20201086840F020
:1017000001000860FFF796F80590FFE741F29400AA
:10171000C4F202000068800700280CD4FFE7FFF73E
:1017200089F80599401A032804D3FFE703208DF8B0
:101730001F005CE2EAE721E041F29401C4F20201F9
:10174000086820F001000860FFF774F80590FFE7D3
:1017500041F29400C4F202000068800700280CD512
:10176000FFE7FFF767F80599401A032804D3FFE75E
:1017700003208DF81F003AE2EAE7FFE7FFE706984B
:1017800000784007002840F1C680FFE700208DF870
:101790000B0041F25800C4F202000068C0000028AB
:1017A00013D4FFE7FFE741F25800C4F202000168DA
:1017B00041F080510160006800F080500190019874
:1017C000FFE701208DF80B00FFE747F20000C4F2AD
:1017D00000000068C005002822D4FFE747F200019E
:1017E000C4F20001086840F480700860FFF722F836
:1017F0000590FFE747F20000C4F200000068C00552
:1018000000280CD4FFE7FFF715F80599401A0328C4
:1018100004D3FFE703208DF81F00E8E1EAE7FFE7C4
:10182000FFE706988068012809D1FFE741F290019F
:10183000C4F20201086840F0010008601FE0069849
:10184000806805280DD1FFE741F29001C4F2020142
:10185000086840F004000860086840F00100086073
:101860000CE041F29001C4F20201086820F001008E
:101870000860086820F004000860FFE7FFE7FFE762
:1018800006988068E0B1FFE7FEF7D4FF0590FFE718
:1018900041F29000C4F202000068800700280ED4D4
:1018A000FFE7FEF7C7FF0599401A41F289318842E8
:1018B00004D3FFE703208DF81F0098E1E8E71BE061
:1018C000FEF7B8FF0590FFE741F29000C4F2020076
:1018D0000068800700280ED5FFE7FEF7ABFF0599EB
:1018E000401A41F28931884204D3FFE703208DF882
:1018F0001F007CE1E8E7FFE79DF80B00012809D114
:10190000FFE741F25801C4F20201086820F080505C
:101910000860FFE7FFE7069800788006002849D5B1
:10192000FFE70698806910B3FFE741F29801C4F21F
:101930000201086840F001000860FEF77BFF059097
:10194000FFE741F29800C4F2020000688007002817
:101950000CD4FFE7FEF76EFF0599401A032804D365
:10196000FFE703208DF81F0041E1EAE721E041F2A3
:101970009801C4F20201086820F001000860FEF737
:1019800059FF0590FFE741F29800C4F20200006899
:10199000800700280CD5FFE7FEF74CFF0599401A99
:1019A000032804D3FFE703208DF81F001FE1EAE7B7
:1019B000FFE7FFE70698C069002800F01481FFE701
:1019C00041F20800C4F20200006800F00C000C288C
:1019D00000F0B080FFE70698C06902287CD1FFE7DD
:1019E00041F20001C4F20201086820F08070086032
:1019F000FEF720FF0590FFE741F20000C4F202006D
:101A00000068800100280CD5FFE7FEF713FF059959
:101A1000401A032804D3FFE703208DF81F00E6E0F7
:101A2000EAE741F20C01C4F20201086848F20C0234
:101A3000C0F29F121040DDF818C0DCF82020DCF85E
:101A40002450DCF828E0DCF82C306FF00F0404EBB5
:101A50000514224342EA0E22DCF8304040F2000E28
:101A6000CFF6E07E0EEA045EAEF5001E42EA0E02FC
:101A7000DCF834E04FF07E4C0CEA0E6C0CF17E4C3E
:101A800042EA0C0242EAC3621043086041F20002DB
:101A9000C4F20202106840F080701060086840F0E4
:101AA00080700860FEF7C6FE0590FFE741F2000077
:101AB000C4F202000068800100280CD4FFE7FEF7A2
:101AC000B9FE0599401A032804D3FFE703208DF8D7
:101AD0001F008CE0EAE72CE041F20001C4F20201B1
:101AE000086820F080700860FEF7A4FE0590FFE70C
:101AF00041F20000C4F202000068800100280CD509
:101B0000FFE7FEF797FE0599401A032804D3FFE785
:101B100003208DF81F006AE0EAE741F20C01C4F2ED
:101B2000020108684FF6FC72CFF6EE6210400860C2
:101B3000FFE757E00698C069012804D1FFE70120BC
:101B40008DF81F0053E041F20C00C4F2020000685F
:101B50000390039800F003000699096A88423BD17C
:101B6000FFE7039800F0F00006994A6A6FF00F0152
:101B700001EB021188422FD1FFE7039800F4FE40E9
:101B80000699896AB0EB012F26D1FFE7039800F090
:101B900078400699C96AB0EBC16F1DD1FFE7039881
:101BA00000F4C00006990A6B0021CFF6E07101EA4B
:101BB0000251A1F5001188420ED1FFE7039800F011
:101BC000C06006994A6B4FF07E4101EA026101F163
:101BD0007E41884204D0FFE701208DF81F0006E017
:101BE000FFE7FFE7FFE700208DF81F00FFE79DF804
:101BF0001F0008B0B0BD000080B582B00190019810
:101C000000F07CFA02B080BD83B00190FFE701983C
:101C100090F88400012804D1FFE702208DF80B0022
:101C20002CE00199012081F88400FFE7FFE701998A
:101C30002420C1F88800019800680068009001988D
:101C40000168086820F001000860009820F000504A
:101C50000090019900204866009801990968086081
:101C600001992020C1F88800FFE70199002081F840
:101C70008400FFE700208DF80B00FFE79DF80B00C4
:101C800003B0704780B584B002900191FFE70298DD
:101C900090F88400012804D1FFE702208DF80F009E
:101CA00032E00299012081F88400FFE7FFE7029902
:101CB0002420C1F88800029800680068009002980B
:101CC0000168086820F001000860029800688068D8
:101CD00020F06060019908430299096888600298C1
:101CE00000F07EFA009802990968086002992020A5
:101CF000C1F88800FFE70299002081F88400FFE71F
:101D000000208DF80F00FFE79DF80F0004B080BDA4
:101D100080B584B002900191FFE7029890F88400AA
:101D2000012804D1FFE702208DF80F0032E002996C
:101D3000012081F88400FFE7FFE702992420C1F821
:101D4000880002980068006800900298016808689E
:101D500020F00100086002980068806820F0604070
:101D600001990843029909688860029800F038FADE
:101D7000009802990968086002992020C1F888003B
:101D8000FFE70299002081F88400FFE700208DF82A
:101D90000F00FFE79DF80F0004B080BD80B582B052
:101DA0000090009820B9FFE701208DF8070046E079
:101DB0000098806908B1FFE700E0FFE70098D0F8DD
:101DC000880040B9FFE70099002081F8840000985E
:101DD00000F03AF8FFE700992420C1F88800009845
:101DE0000168086820F0010008600098806A20B14E
:101DF000FFE7009800F038FAFFE7009800F0CCFB0E
:101E0000012804D1FFE701208DF8070017E00098B2
:101E10000168486820F4904048600098016888682C
:101E200020F02A00886000980168086840F00100EE
:101E30000860009800F0BCFA8DF80700FFE79DF8F5
:101E4000070002B080BD000080B59AB01990002054
:101E50001890179016901590149003A84421FEF73F
:101E6000B9FA1998006844F60041C4F200018842AA
:101E70003CD1FFE7082003900020079003A8FEF75D
:101E800071FE18B1FFE7FEF70DFBFFE7FFE741F238
:101E90005800C4F20200016841F4002101600068AA
:101EA00000F4002002900298FFE7FFE741F24C00A7
:101EB000C4F20200016841F004010160006800F012
:101EC000040001900198FFE74FF440601490022055
:101ED00015900020169017900520189040F60000ED
:101EE000C4F6000014A9FEF7E5FAFFE71AB080BDBA
:101EF000FFE7FEE783B0FFE741F24C00C4F20200C7
:101F0000016841F020010160006800F020000290AB
:101F10000298FFE7FFE741F24C00C4F202000168BB
:101F200041F001010160006800F00100019001989A
:101F3000FFE7FFE741F24C00C4F20200016841F004
:101F400004010160006800F0040000900098FFE7C1
:101F500003B0704780B582B040F27000C2F200005A
:101F6000009044F60041C4F2000101604FF4E131F9
:101F70004160002101918160C16001610C224261D8
:101F80008161C161016241628162FFF707FF18B19F
:101F9000FFE7FEF787FAFFE740F27000C2F20000A9
:101FA0000021FFF7B5FE18B1FFE7FEF77BFAFFE768
:101FB00040F27000C2F200000021FFF763FE18B18A
:101FC000FFE7FEF76FFAFFE740F27000C2F2000091
:101FD000FFF71AFE18B1FFE7FEF764FAFFE702B059
:101FE00080BD0000FFE7FEE7FFE7FEE788B007904F
:101FF00006910592079800F0070004900498C0F13C
:102000000700052803D3FFE70420019004E00498AB
:10201000C0F107000190FFE7019803900498043095
:10202000062803D8FFE70020009003E00498033857
:102030000090FFE70098029006980399012202FAA7
:1020400001F101390840029B984005999A40013AF4
:102050001140084308B070477047000086B041F255
:102060000C00C4F20200016801F003010491006851
:10207000C1B2012000EB11100290049800900228D8
:1020800015D0FFE70098032812D1FFE7029941F22B
:102090000020C0F27A00B0FBF1F041F20C01C4F272
:1020A00002010968C1F306214843059011E0FFE7EA
:1020B000029942F20040C0F2F400B0FBF1F041F2AC
:1020C0000C01C4F202010968C1F3062148430590DE
:1020D000FFE741F20C00C4F20200006800F0C061AA
:1020E000022000EB1160039005980399B0FBF1F01A
:1020F0000190019806B070477047000080B582B02B
:10210000009000980138B0F1807F03D3FFE70120F1
:10211000019019E0009801384EF21401CEF200014E
:1021200008604FF0FF300F2100F07EFD4EF21801E5
:10213000CEF20001002008604EF21002CEF2000242
:10214000072111600190FFE7019802B080BD0000F7
:1021500080B5FEF775FB80BD80B594B006A80090F1
:102160003821FEF737F90020059004900390029083
:102170000190FEF713FC0098012106914FF4803185
:10218000079102210D9103220E920F915522109278
:10219000119112911391FFF753F918B1FFE7FEF770
:1021A00081F9FFE70F2001900320029000200390A7
:1021B0000490059001A80421FEF702FF18B1FFE783
:1021C000FEF770F9FFE714B080BD00004EF68851AD
:1021D000CEF20001086840F470000860704700000B
:1021E00082B001900198406E40B9FFE7019901204B
:1021F000A1F86A000199A1F8680032E008208DF882
:1022000003008DF80200019800688068C0F3426006
:102210008DF80100019800688068400F8DF800007B
:102220009DF802009DF8002042F6FE43C0F6000330
:10223000995C484342F6F641C0F600018A5CB0FB67
:10224000F2F0019AA2F86A009DF803009DF80120BF
:102250009B5C5843895CB0FBF1F00199A1F86800E0
:10226000FFE702B07047000081B00090009890F83E
:102270002800000700280BD5FFE700980068406899
:1022800020F40040009A1168926B10434860FFE709
:10229000009890F82800C00758B1FFE70098006840
:1022A000406820F40030009A1168D26A10434860F8
:1022B000FFE7009890F82800800700280BD5FFE77B
:1022C00000980068406820F48030009A1168126B12
:1022D00010434860FFE7009890F828004007002866
:1022E0000BD5FFE700980068406820F48020009A32
:1022F0001168526B10434860FFE7009890F828007F
:10230000C00600280BD5FFE700980068806820F41D
:102310008050009A1168D26B10438860FFE70098E4
:1023200090F82800800600280BD5FFE70098006889
:10233000806820F40050009A1168126C1043886085
:10234000FFE7009890F82800400600281CD5FFE71A
:1023500000980068406820F48010009A1168526C60
:10236000104348600098406CB0F5801F0BD1FFE728
:1023700000980068406820F4C000009A1168926CD0
:1023800010434860FFE7FFE7009890F82800000638
:1023900000280BD5FFE700980068406820F4002073
:1023A000009A1168D26C10434860FFE701B0704793
:1023B00080B588B0069006990020C1F89000FEF71D
:1023C00039FA0590069800680068000700282FD5A4
:1023D000FFE70698059B6A466FF07E4111604FF457
:1023E0000011002200F090FB08B3FFE7FFE7FFE7D2
:1023F0000698006850E8000F20F080000490FFE786
:1024000004990698026842E800100028F0D1FFE71E
:10241000FFE706992020C1F88800FFE70699002011
:1024200081F88400FFE703208DF81F005FE0FFE7DD
:102430000698006800684007002842D5FFE7069824
:10244000059B6A466FF07E4111604FF480010022C7
:1024500000F05AFBA0B3FFE7FFE7FFE7069800682C
:1024600050E8000F20F490700390FFE7039906985E
:10247000026842E800100028F0D1FFE7FFE7FFE71D
:10248000FFE70698006850E8020F20F00100029074
:10249000FFE702990698026842E802100028F0D18E
:1024A000FFE7FFE706992020C1F88C00FFE70699B7
:1024B000002081F88400FFE703208DF81F0016E05C
:1024C000FFE706992020C1F888000699C1F88C0022
:1024D00006990020C86606990867FFE7069900205C
:1024E00081F88400FFE700208DF81F00FFE79DF8CA
:1024F0001F0008B080BD000084B00390FFE7FFE735
:102500000398006850E8000F20F490700290FFE7F5
:1025100002990398026842E800100028F0D1FFE712
:10252000FFE7FFE7FFE70398006850E8020F4FF668
:10253000FE71CEF6FF7108400190FFE70199039804
:10254000026842E802100028EDD1FFE7FFE7039898
:10255000C06E012814D1FFE7FFE7FFE7039800688A
:1025600050E8000F20F010000090FFE7009903985A
:10257000026842E800100028F0D1FFE7FFE7FFE71C
:1025800003992020C1F88C0003990020C8660399A4
:10259000486704B07047000080B592B011900020E9
:1025A0008DF837001198006848F20001C4F200016C
:1025B000884201D1FFE700E0FFE7119988680B69C5
:1025C0004A69C9691843104308431090119800687C
:1025D000006846F6F311CCF6FF71084010990843E5
:1025E00011990968086011980068406820F440500B
:1025F000119A1168D2681043486011988069109050
:102600001198006848F20001C4F20001884206D027
:10261000FFE71198016A109808431090FFE711989E
:10262000006880684FF2FF41C1F2FF110840109925
:10263000084311990968886011980068C06A20F001
:102640000F00119A1168526A1043C862FFE711988F
:10265000006843F60001C4F20101884225D1FFE77A
:1026600041F28800C4F20200006800F00300014655
:102670000A91032814D80A99DFE801F0020A060E2D
:1026800001208DF83D000FE002208DF83D000BE0A9
:1026900004208DF83D0007E008208DF83D0003E0A0
:1026A00010208DF83D00FFE7DCE01198006844F24F
:1026B0000041C4F2000188422AD1FFE741F28800BC
:1026C000C4F20200006800F00C00014609910C28D9
:1026D00019D80999DFE801F0071717170F1717170F
:1026E0000B171717130000208DF83D000FE0022094
:1026F0008DF83D000BE004208DF83D0007E0082038
:102700008DF83D0003E010208DF83D00FFE7A8E0C4
:102710001198006844F60001C4F2000188422CD1EF
:10272000FFE741F28800C4F20200006800F03000C8
:102730000146089160B1FFE70898102810D0FFE724
:102740000898202808D0FFE7089830280CD00FE020
:1027500000208DF83D000FE002208DF83D000BE0D9
:1027600004208DF83D0007E008208DF83D0003E0CF
:1027700010208DF83D00FFE772E01198006844F6E4
:102780000041C4F2000188422CD1FFE741F28800E9
:10279000C4F20200006800F0C0000146079160B179
:1027A000FFE70798402810D0FFE70798802808D057
:1027B000FFE70798C0280CD00FE000208DF83D00FF
:1027C0000FE002208DF83D000BE004208DF83D0065
:1027D00007E008208DF83D0003E010208DF83D0053
:1027E000FFE73CE01198006848F20001C4F20001E4
:1027F00088422FD1FFE741F28800C4F2020000684E
:1028000000F440600146069178B1FFE70698B0F504
:10281000806F12D0FFE70698B0F5006F09D0FFE790
:102820000698B0F5406F0CD00FE000208DF83D0009
:102830000FE002208DF83D000BE004208DF83D00F4
:1028400007E008208DF83D0003E010208DF83D00E2
:10285000FFE703E010208DF83D00FFE7FFE7FFE70B
:10286000FFE7FFE7FFE71198006848F20001C4F2B4
:102870000001884240F07E80FFE79DF83D00014660
:102880000591082819D80599DFE801F005170917FF
:102890000F1717171300FEF72DFD0B9013E042F2F0
:1028A0000040C0F2F4000B900DE0FEF74BFD0B90E2
:1028B00009E04FF400400B9005E000200B90012050
:1028C0008DF83700FFE70B98002852D0FFE70B98F0
:1028D00011994A6A42F60651C0F6000131F8121009
:1028E000B0FBF1F00C900C981199496801EB410193
:1028F000884207D3FFE70C9811994968B0EB013F74
:1029000004D9FFE701208DF8370031E00B981199C9
:102910004A6803924A6A42F60651C0F6000131F84D
:102920001220002304931946FDF7DCFC039A049B54
:10293000090241EA1061000210EB520041F100016E
:10294000FDF7D0FC0E900E98B0F5407F0BD3FFE75B
:102950000E990020B0EB115F05D1FFE70E98119999
:102960000968C86003E001208DF83700FFE7FFE742
:10297000FFE7B9E01198C069B0F5004F61D1FFE7FA
:102980009DF83D000146029108281DD80299DFE814
:1029900001F005090D1B131B1B1B1700FEF7AAFCFA
:1029A0000B9017E0FEF7BAFC0B9013E042F20040E8
:1029B000C0F2F4000B900DE0FEF7C4FC0B9009E0B0
:1029C0004FF400400B9005E000200B9001208DF8A3
:1029D0003700FFE70B9898B3FFE70B98119A5168FF
:1029E000536A42F60652C0F6000232F81320B0FBDA
:1029F000F2F0400000EB5100B0FBF1F00E900E98A9
:102A0000102818D3FFE7BDF83A00A0B9FFE70E98E9
:102A100020F00F00ADF83E000E9800F00E01BDF85A
:102A20003E0040EA5100ADF83E00BDF83E0011996D
:102A30000968C86003E001208DF83700FFE7FFE771
:102A400051E09DF83D000146019108281DD80199EB
:102A5000DFE801F005090D1B131B1B1B1700FEF718
:102A600049FC0B9017E0FEF759FC0B9013E042F283
:102A70000040C0F2F4000B900DE0FEF763FC0B90F9
:102A800009E04FF400400B9005E000200B9001207E
:102A90008DF83700FFE70B9820B3FFE70B98119AEA
:102AA0005168536A42F60652C0F6000232F813200B
:102AB000B0FBF2F000EB5100B0FBF1F00E900E987D
:102AC00010280AD3FFE7BDF83A0030B9FFE7BDF898
:102AD000380011990968C86003E001208DF83700BB
:102AE000FFE7FFE7FFE7FFE711990120A1F86A0080
:102AF0001199A1F868001199002048671199886719
:102B00009DF8370012B080BD80B586B0DDF820C0DA
:102B1000049003918DF80B200193FFE7049800685F
:102B2000C06903990840401AB0FA80F040099DF846
:102B30000B10884266D1FFE708980130002860D06A
:102B4000FFE7FDF777FE0199401A0899884203D8FC
:102B5000FFE7089820B9FFE703208DF8170055E03C
:102B60000498006800684007002849D5FFE70398EB
:102B7000802845D0FFE70398402841D0FFE704981C
:102B80000068C06900F008010120B0EBD10F16D138
:102B9000FFE7049801680820009008620498FFF796
:102BA000ABFC00980499C1F89000FFE7049900205D
:102BB00081F88400FFE701208DF8170026E00498D3
:102BC0000068C06900F400610120B0EBD12F16D17C
:102BD000FFE7049801684FF4006008620498FFF76B
:102BE0008BFC04992020C1F89000FFE70499002095
:102BF00081F88400FFE703208DF8170006E0FFE767
:102C0000FFE78BE700208DF81700FFE79DF817001E
:102C100006B080BDFFE7FEE74EF60C50CEF2000096
:102C20000068C0F30220704782B08DF80700009161
:102C30009DF9070000280AD4FFE7009800019DF9DC
:102C400007104EF20042CEF2000288540BE00098CA
:102C500000019DF8071001F00F014EF61452CEF25C
:102C600000028854FFE702B07047000083B0029072
:102C7000029800F0070000904EF60C51CEF20001D1
:102C80000868019001984FF6FF02104001900198EA
:102C9000009A40EA02200022C0F2FA52104301904A
:102CA0000198086003B0704780B582B000200190A1
:102CB000FDF7D4FDFFF750FAFFF71CF9FFF74AF9CB
:102CC000FFE7FEE7F1EE100A4FF6FF71C0F2C031E8
:102CD00020EA010040F04070E1EE100A7047000069
:102CE00000000000000001020304060708090000BC
:102CF00000000102030408040204080101010101AB
:102D000001030701000001000200040006000800A2
:102D10000A000C00100020004000800000010000AC
:102D2000402D000800000020100000003C020008B8
:102D3000502D000810000020F80600005C0200087A
:102D40000024F4000100000010000000000000005A
:04000005080001D915
:00000001FF
