:020000040800F2
:10000000C0060020A5020008F51F0008551E0008C4
:10001000F11F0008AD030008A12C0008000000003B
:1000200000000000000000000000000005210008A2
:10003000B103000800000000652000085D210008F1
:10004000BF020008BF020008BF020008BF0200088C
:10005000BF020008BF020008BF020008BF0200087C
:10006000BF020008BF020008BF020008BF0200086C
:10007000BF020008BF020008BF020008BF0200085C
:10008000BF02000800000000BF020008BF02000815
:10009000BF020008BF020008BF020008BF0200083C
:1000A000BF020008BF020008BF020008BF0200082C
:1000B000BF020008BF020008BF020008BF0200081C
:1000C000BF020008BF020008BF020008BF0200080C
:1000D000BF020008BF020008BF020008BF020008FC
:1000E000BF020008BF020008BF020008BF020008EC
:1000F000BF020008BF020008BF02000800000000A5
:1001000000000000BF02000800000000BF0200085D
:10011000BF02000800000000BF020008BF02000884
:10012000BF020008BF020008BF020008BF020008AB
:10013000BF0200080000000000000000BF0200082D
:10014000BF020008BF02000800000000000000001D
:10015000000000000000000000000000000000009F
:10016000000000000000000000000000BF020008C6
:10017000BF020008000000000000000000000000B6
:1001800000000000BF0200080000000000000000A6
:10019000000000000000000000000000000000005F
:1001A0000000000000000000BF020008BF020008BD
:1001B000BF020008BF020008BF02000800000000E4
:1001C00000000000BF020008000000000000000066
:1001D000BF020008BF02000800F002F800F052F869
:1001E00014A696E8000CB244B344DA4501D100F0FD
:1001F00049F8BAE80F000FA696E83000A5EB040511
:1002000004EB0607AAEB0704A7F101074FEA15154F
:100210004FEA3414A4F10104AC4201D300F032F8E7
:1002200013F0010F18BFFB1A43F0010300F001F8AF
:10023000DBE71847482B0000682B0000103A24BF6A
:1002400078C878C1FAD8520724BF30C830C144BF3B
:1002500004680C6070470000704700000023002411
:1002600000250026103A28BF78C1FBD8520728BFC6
:1002700030C148BF0B6070471FB502F069FD1FBD5C
:1002800010B510BD00F058F81146FFF7F5FF02F069
:1002900051FD00F076F803B4FFF7F2FF03BC00F065
:1002A0007DF800000948804709480047FEE7FEE75F
:1002B000FEE7FEE7FEE7FEE7FEE7FEE7FEE7FEE716
:1002C00004480549054A064B70470000D92100083B
:1002D000D9010008C0000020C0060020C002002094
:1002E000C00200204FF0000200B513469446964627
:1002F000203922BFA0E80C50A0E80C50B1F1200139
:10030000BFF4F7AF090728BFA0E80C5048BF0CC0E6
:100310005DF804EB890028BF40F8042B08BF704744
:1003200048BF20F8022B11F0804F18BF00F8012BB6
:100330007047704770477047754600F02BF8AE461F
:1003400005006946534620F00700854618B020B5E1
:10035000FFF7B6FFBDE820404FF000064FF0000762
:100360004FF000084FF0000BAC46ACE8C009ACE819
:10037000C009ACE8C009ACE8C00921F007018D460E
:10038000704710B50446AFF300802046BDE810402A
:10039000FFF781BF00487047100000200149182076
:1003A000ABBEFEE72600020070470000FFE7FEE755
:1003B0007047000081B0EFF3108072B60090FFE745
:1003C000FEE700008BB00A90099100200890FFE73B
:1003D000099800680899C840002800F0B181FFE73B
:1003E00009980068089A01219140084007900798F1
:1003F000002800F0A181FFE70998406800F00300A1
:10040000012807D0FFE70998406800F003000228A0
:100410002FD1FFE70A9880680690089841000320D2
:1004200000FA01F10698884306900998C068089977
:10043000490000FA01F106980843069006980A99C7
:1004400088600A98406806900899012000FA01F136
:1004500006988843069009984068C0F300100899F0
:1004600000FA01F106980843069006980A99486038
:10047000FFE70998406800F0030003280CD1FFE76C
:100480000998406800F0030003281DD1FFE7099890
:100490008068012818D0FFE70A98C068069008987D
:1004A0004100032000FA01F106988843069009985C
:1004B00080680899490000FA01F1069808430690FF
:1004C00006980A99C860FFE70998406800F00300A1
:1004D000022826D1FFE70A9808996FF0030202EA82
:1004E00051010844006A0690089800F00700810056
:1004F0000F2000FA01F106988843069009980069D8
:10050000089901F00701890000FA01F106980843F3
:10051000069006980A99089B02EA53021144086261
:10052000FFE70A980068069008984100032000FA47
:1005300001F10698884306900998406800F003008E
:100540000899490000FA01F10698084306900698B8
:100550000A990860099880798007002800F0EB80EC
:10056000FFE7FFE741F26000C4F20200016841F0DA
:1005700001010160006800F0010005900598FFE7A7
:10058000089820F003000821C4F2010140580690A9
:10059000089800F0030081000F2000FA01F106988E
:1005A000884306900A98B0F1904F03D1FFE70020EE
:1005B000049042E00A9840F20041C4F600018842EB
:1005C00003D1FFE70120039034E00A9840F60001D0
:1005D000C4F60001884203D1FFE70220029026E022
:1005E0000A9840F60041C4F60001884203D1FFE7B3
:1005F0000320019018E00A9841F20001C4F60001BE
:10060000884203D1FFE7042000900AE00A9941F2F2
:100610000042C4F600020620914208BF0520009067
:10062000FFE700980190FFE701980290FFE702982A
:100630000390FFE703980490FFE70498089901F0FE
:100640000301890000FA01F1069808430690069814
:10065000089921F003010822C4F20102885040F2F7
:100660000840C4F201000068069007990698884384
:10067000069009988079C006002805D5FFE70799FC
:10068000069808430690FFE7069840F20841C4F236
:100690000101086040F20C40C4F2010000680690BD
:1006A0000799069888430690099880798006002863
:1006B00005D5FFE70799069808430690FFE70698D7
:1006C00040F20C41C4F20101086040F20440C4F25F
:1006D00001000068069007990698884306900998DB
:1006E00080798007002805D5FFE707990698084319
:1006F0000690FFE7069840F20441C4F20101086049
:1007000040F20040C4F20100006806900799069884
:100710008843069009988079C00728B1FFE70799B8
:10072000069808430690FFE7069840F20041C4F29D
:1007300001010860FFE7FFE708980130089047E6ED
:100740000BB0704740F2BC00C2F200000068704776
:1007500040F20400C2F20000026840F2BC01C2F2A2
:1007600000010868104408607047000080B582B03E
:1007700000208DF80700032000F090F80F2000F013
:100780000DF820B1FFE701208DF8070002E000F02E
:1007900049F8FFE79DF8070002B080BD80B582B040
:1007A000019000208DF8030040F20400C2F2000026
:1007B000006878B3FFE740F20000C2F20000006872
:1007C00040F20401C2F200010A684FF47A71B1FBF1
:1007D000F2F1B0FBF1F000F03BFFB0B9FFE7019898
:1007E0000F280DD8FFE701994FF0FF30002200F0ED
:1007F0003DF8019840F20801C2F20001086003E0F0
:1008000001208DF80300FFE703E001208DF80300CD
:10081000FFE703E001208DF80300FFE79DF80300E8
:1008200002B080BD80B582B0FFE741F26000C4F243
:100830000200016841F001010160006800F0010060
:1008400001900198FFE7FFE741F25800C4F202006F
:10085000016841F080510160006800F08050009014
:100860000098FFE700F0FCF802B080BD80B586B0CC
:100870008DF817000491039202F014FA02909DF98A
:100880001700019002980499039A01F0B5FB014604
:10089000019802F00FFA06B080BD000080B582B06A
:1008A0000190019802F028FA02B080BD85B0039053
:1008B000039800285ED1FFE747F20000C4F2000071
:1008C000006800F4C060B0F5806F49D1FFE747F2DF
:1008D0008001C4F20001086820F48070086047F2CB
:1008E0000002C4F200021168012060F34A21116085
:1008F00040F20001C2F200010968322251434DF674
:100900008362C4F21B32A1FB022100EB91400290F2
:10091000FFE747F21400C4F2000001680020490517
:100920000029019006D5FFE70298002818BF012092
:100930000190FFE70198C00720B1FFE70298013856
:100940000290E6E747F21400C4F200000068400598
:10095000002804D5FFE703208DF813007CE008E0B1
:1009600047F28001C4F20001086820F4807008603A
:10097000FFE76DE00398B0F5007F5ED1FFE747F237
:100980000000C4F20000006800F4C060B0F5806FA1
:1009900049D1FFE747F28001C4F20001086840F442
:1009A0008070086047F20002C4F200021168012062
:1009B00060F34A21116040F20001C2F200010968AF
:1009C000322251434DF68362C4F21B32A1FB022155
:1009D00000EB91400290FFE747F21400C4F20000E0
:1009E0000168002049050029009006D5FFE702981C
:1009F000002818BF01200090FFE70098C00720B131
:100A0000FFE7029801380290E6E747F21400C4F2CB
:100A1000000000684005002804D5FFE703208DF89A
:100A2000130019E008E047F28001C4F200010868F1
:100A300040F480700860FFE709E047F20001C4F26B
:100A400000010868022262F34A200860FFE7FFE71E
:100A500000208DF81300FFE79DF8130005B07047E4
:100A600047F20801C4F20001086840F480400860C1
:100A70007047000080B586B004900391002000907C
:100A8000049820B9FFE701208DF8170081E1039851
:100A900042F20001C4F20201096801F00F0188422C
:100AA00016D9FFE742F20000C4F20200016821F00B
:100AB0000F01039A11430160006800F00F000399D1
:100AC000884204D0FFE701208DF8170061E1FFE7BD
:100AD00004980078C007002800F0A380FFE704987E
:100AE0004068032839D1FFE741F20000C4F2020058
:100AF00000688001002804D4FFE701208DF817006A
:100B000047E101F0B1FA019001984BF20141C0F2C6
:100B1000C441884220D3FFE741F20800C4F202003A
:100B2000006810F0F00F0AD0FFE704980078800703
:100B3000002810D5FFE70498806860B9FFE741F20C
:100B40000801C4F202010868082262F30710086075
:100B500080200090FFE7FFE738E004984068022813
:100B60000ED1FFE741F20000C4F2020000688003EA
:100B7000002804D4FFE701208DF8170009E10DE0FB
:100B800041F20000C4F2020000684005002804D4CD
:100B9000FFE701208DF81700FBE0FFE700F0FEF80B
:100BA000019001984BF20141C0F2C44188420CD33C
:100BB000FFE741F20801C4F202010868082262F36B
:100BC0000710086080200090FFE7FFE741F208016E
:100BD000C4F20201086820F00300049A526810432E
:100BE0000860FFF7AFFD0290FFE741F20800C4F292
:100BF0000200006800F00C0004994968B0EB810F16
:100C00000ED0FFE7FFF79EFD0299401A41F28931AD
:100C1000884204D3FFE703208DF81700B9E0E4E72A
:100C2000FFE704980078800700282CD5FFE7049898
:100C300000784007002809D5FFE741F20801C4F217
:100C40000201086840F4E0600860FFE7049800785B
:100C5000000700280BD5FFE741F20801C4F20201AA
:100C6000086840F4E06020F460500860FFE741F25B
:100C70000801C4F20201086820F0F000049A9268AA
:100C8000104308600DE00098802809D1FFE741F289
:100C90000801C4F20201086820F0F0000860FFE7D4
:100CA000FFE7039842F20001C4F20201096801F073
:100CB0000F01884228D2FFE742F20001C4F202018C
:100CC000086820F00F00039A10430860FFF73AFD10
:100CD0000290FFE742F20000C4F20200006800F058
:100CE0000F00039988420ED0FFE7FFF72BFD029912
:100CF000401A41F28931884204D3FFE703208DF87E
:100D0000170046E0E6E7FFE7049800784007002870
:100D10000CD5FFE741F20801C4F20201086820F493
:100D2000E060049AD26810430860FFE704980078F6
:100D3000000700280DD5FFE741F20801C4F20201C7
:100D4000086820F46050049A126940EAC200086002
:100D5000FFE700F023F841F20801C4F2020109683C
:100D6000C9B20A0942F66A51C0F60001895C01F075
:100D70001F01C84040F20001C2F20001086040F2C9
:100D80000800C2F200000068FFF708FD8DF81700A8
:100D9000FFE79DF8170006B080BD000086B041F265
:100DA0000800C4F20200006800F00C00042806D11C
:100DB000FFE742F20040C0F2F400019069E041F226
:100DC0000800C4F20200006800F00C00082806D1F8
:100DD000FFE741F20020C0F27A00019058E041F2B2
:100DE0000800C4F20200006800F00C000C284BD18F
:100DF000FFE741F20C00C4F20200016801F00301B8
:100E000004910068C1B2012000EB11100290049817
:100E10000090022815D0FFE70098032812D1FFE7C1
:100E2000029941F20020C0F27A00B0FBF1F041F2E9
:100E30000C01C4F202010968C1F306214843059080
:100E400011E0FFE7029942F20040C0F2F400B0FB6B
:100E5000F1F041F20C01C4F202010968C1F306216C
:100E600048430590FFE741F20C00C4F2020000681D
:100E700000F0C061022000EB116003900598039917
:100E8000B0FBF1F0019002E000200190FFE7FFE7E6
:100E9000FFE7019806B07047B0B588B00690069895
:100EA00020B9FFE701208DF81F00CCE306980078F9
:100EB000C007002800F09B80FFE741F20800C4F261
:100EC0000200006800F00C00049041F20C00C4F233
:100ED0000200006800F00300039004980C2804D17D
:100EE000FFE70398032804D0FFE70498082812D1ED
:100EF000FFE741F20000C4F202000068800300280E
:100F000008D5FFE70698406820B9FFE701208DF873
:100F10001F0098E36AE0FFE706984068B0F5803F5D
:100F200009D1FFE741F20001C4F20201086840F470
:100F30008030086020E006984068B0F5A02F0DD101
:100F4000FFE741F20001C4F20201086840F480208A
:100F50000860086840F4803008600CE041F200014D
:100F6000C4F20201086820F480300860086820F4A8
:100F700080200860FFE7FFE7FFE706984068D0B1F0
:100F8000FFE7FFF7DFFB0590FFE741F20000C4F247
:100F900002000068800300280CD4FFE7FFF7D2FBB3
:100FA0000599401A652804D3FFE703208DF81F0038
:100FB00049E3EAE719E0FFF7C5FB0590FFE741F2D7
:100FC0000000C4F202000068800300280CD5FFE78F
:100FD000FFF7B8FB0599401A652804D3FFE7032003
:100FE0008DF81F002FE3EAE7FFE7FFE7FFE706982A
:100FF00000788007002840F19F80FFE741F2080059
:10100000C4F20200006800F00C00049041F20C00F1
:10101000C4F20200006800F00300039004980C285A
:1010200004D1FFE70398022804D0FFE704980428BE
:101030002CD1FFE741F20000C4F202000068400535
:10104000002808D5FFE70698C06820B9FFE701200F
:101050008DF81F00F7E241F20401C4F202010868B2
:1010600020F0FE40069A126940EA0260086040F2F1
:101070000800C2F200000068FFF790FB20B1FFE714
:1010800001208DF81F00DEE2FFE754E00698C068FB
:1010900070B3FFE741F20001C4F20201086840F4B6
:1010A00080700860FFF74EFB0590FFE741F20000FB
:1010B000C4F202000068400500280CD4FFE7FFF7E7
:1010C00041FB0599401A032804D3FFE703208DF85C
:1010D0001F00B8E2EAE741F20401C4F20201086825
:1010E00020F0FE40069A126940EA0260086021E0A2
:1010F00041F20001C4F20201086820F48070086027
:10110000FFF720FB0590FFE741F20000C4F2020068
:101110000068400500280CD5FFE7FFF713FB059991
:10112000401A032804D3FFE703208DF81F008AE24A
:10113000EAE7FFE7FFE7FFE70698007800070028E7
:1011400049D5FFE70698406910B3FFE741F29401E3
:10115000C4F20201086840F001000860FFF7F2FAEB
:101160000590FFE741F29400C4F202000068800796
:1011700000280CD4FFE7FFF7E5FA0599401A032889
:1011800004D3FFE703208DF81F005CE2EAE721E0CB
:1011900041F29401C4F20201086820F001000860E5
:1011A000FFF7D0FA0590FFE741F29400C4F2020085
:1011B0000068800700280CD5FFE7FFF7C3FA059900
:1011C000401A032804D3FFE703208DF81F003AE2FA
:1011D000EAE7FFE7FFE7069800784007002840F1BC
:1011E000C680FFE700208DF80B0041F25800C4F2E2
:1011F00002000068C000002813D4FFE7FFE741F2B7
:101200005800C4F20200016841F08051016000689A
:1012100000F0805001900198FFE701208DF80B004D
:10122000FFE747F20000C4F200000068C005002894
:1012300022D4FFE747F20001C4F20001086840F43D
:1012400080700860FFF77EFA0590FFE747F2000024
:10125000C4F200000068C00500280CD4FFE7FFF7C7
:1012600071FA0599401A032804D3FFE703208DF88B
:101270001F00E8E1EAE7FFE7FFE70698806801283A
:1012800009D1FFE741F29001C4F20201086840F081
:10129000010008601FE00698806805280DD1FFE76F
:1012A00041F29001C4F20201086840F004000860B5
:1012B000086840F0010008600CE041F29001C4F2BF
:1012C0000201086820F001000860086820F00400AE
:1012D0000860FFE7FFE7FFE706988068E0B1FFE7F7
:1012E000FFF730FA0590FFE741F29000C4F20200E8
:1012F0000068800700280ED4FFE7FFF723FA05995E
:10130000401A41F28931884204D3FFE703208DF867
:101310001F0098E1E8E71BE0FFF714FA0590FFE7EC
:1013200041F29000C4F202000068800700280ED548
:10133000FFE7FFF707FA0599401A41F28931884221
:1013400004D3FFE703208DF81F007CE1E8E7FFE707
:101350009DF80B00012809D1FFE741F25801C4F2C2
:101360000201086820F080500860FFE7FFE7069858
:1013700000788006002849D5FFE70698806910B3F9
:10138000FFE741F29801C4F20201086840F0010051
:101390000860FFF7D7F90590FFE741F29800C4F223
:1013A00002000068800700280CD4FFE7FFF7CAF9A5
:1013B0000599401A032804D3FFE703208DF81F0086
:1013C00041E1EAE721E041F29801C4F20201086834
:1013D00020F001000860FFF7B5F90590FFE741F242
:1013E0009800C4F202000068800700280CD5FFE7CF
:1013F000FFF7A8F90599401A032804D3FFE7032053
:101400008DF81F001FE1EAE7FFE7FFE70698C069D4
:10141000002800F01481FFE741F20800C4F2020046
:10142000006800F00C000C2800F0B080FFE7069880
:10143000C06902287CD1FFE741F20001C4F2020139
:10144000086820F080700860FFF77CF90590FFE7DE
:1014500041F20000C4F202000068800100280CD5AF
:10146000FFE7FFF76FF90599401A032804D3FFE758
:1014700003208DF81F00E6E0EAE741F20C01C4F218
:101480000201086848F20C02C0F29F121040DDF819
:1014900018C0DCF82020DCF82450DCF828E0DCF868
:1014A0002C306FF00F0404EB0514224342EA0E22A5
:1014B000DCF8304040F2000ECFF6E07E0EEA045E2B
:1014C000AEF5001E42EA0E02DCF834E04FF07E4C2E
:1014D0000CEA0E6C0CF17E4C42EA0C0242EAC3624A
:1014E0001043086041F20002C4F20202106840F0AA
:1014F00080701060086840F080700860FFF722F983
:101500000590FFE741F20000C4F20200006880018C
:1015100000280CD4FFE7FFF715F90599401A0328B6
:1015200004D3FFE703208DF81F008CE0EAE72CE0EE
:1015300041F20001C4F20201086820F080700860E6
:10154000FFF700F90590FFE741F20000C4F2020046
:101550000068800100280CD5FFE7FFF7F3F8059934
:10156000401A032804D3FFE703208DF81F006AE028
:10157000EAE741F20C01C4F2020108684FF6FC727E
:10158000CFF6EE6210400860FFE757E00698C069AA
:10159000012804D1FFE701208DF81F0053E041F23C
:1015A0000C00C4F2020000680390039800F00300EE
:1015B0000699096A88423BD1FFE7039800F0F000E2
:1015C00006994A6A6FF00F0101EB021188422FD190
:1015D000FFE7039800F4FE400699896AB0EB012FFB
:1015E00026D1FFE7039800F078400699C96AB0EB6E
:1015F000C16F1DD1FFE7039800F4C00006990A6B84
:101600000021CFF6E07101EA0251A1F500118842F4
:101610000ED1FFE7039800F0C06006994A6B4FF0C7
:101620007E4101EA026101F17E41884204D0FFE778
:1016300001208DF81F0006E0FFE7FFE7FFE700202D
:101640008DF81F00FFE79DF81F0008B0B0BD000037
:1016500080B582B00190019800F056FD02B080BDC7
:1016600084B00290019100200090FFE7029890F86A
:101670003C00012804D1FFE702208DF80F0083E031
:101680000299012081F83C00FFE7FFE7009820F075
:10169000FF000199C96808430090009820F4407049
:1016A0000199896808430090009820F480600199AE
:1016B000496808430090009820F400600199096887
:1016C00008430090009820F480500199096908436C
:1016D0000090009820F40050019949690843009057
:1016E000009820F480400199096B0843009000980D
:1016F00020F470200199896940EA01400090009827
:1017000020F080500199C969084300900298006850
:1017100042F60041C4F20101884209D0FFE7029875
:10172000006843F20041C4F2010188421ED1FFE784
:10173000009820F470000199896A40EA01500090F5
:10174000009820F080700199096A08430090009881
:1017500020F000700199496A08430090009820F039
:1017600000500199C96A08430090FFE70098029968
:1017700009684864FFE70299002081F83C00FFE710
:1017800000208DF80F00FFE79DF80F0004B07047B0
:1017900085B003900291FFE7039890F83C00012880
:1017A00004D1FFE702208DF813008CE0039901209B
:1017B00081F83C00FFE7FFE70399022081F83D0034
:1017C0000398006840680190039800688068009062
:1017D0000398006842F60041C4F20101884209D032
:1017E000FFE70398006843F20041C4F20101884218
:1017F0000AD1FFE7019820F4700001900298416837
:10180000019808430190FFE701984FF68F71CFF6DA
:10181000FF51084001900298016801980843019027
:1018200001980399096848600398006842F60041EE
:10183000C4F2010188422AD0FFE703980068B0F1A2
:10184000804F24D0FFE70398006840F20041C4F2C3
:10185000000188421BD0FFE70398006840F60001B2
:10186000C4F20001884212D0FFE70398006843F2F7
:101870000041C4F20101884209D0FFE703980068E3
:1018800044F20001C4F2010188420ED1FFE7009842
:1018900020F0800000900298816800980843009032
:1018A0000098039909688860FFE70399012081F88F
:1018B0003D00FFE70399002081F83C00FFE700208E
:1018C0008DF81300FFE79DF8130005B07047000086
:1018D00080B582B00090009820B9FFE701208DF814
:1018E000070045E0009890F83D0040B9FFE70099F7
:1018F000002081F83C00009800F03EF8FFE70099D6
:10190000022081F83D00009951F8040B00F06EFCB4
:101910000099012081F84800FFE70099012081F833
:101920003E00009981F83F00009981F8400000993D
:1019300081F84100009981F84200009981F8430044
:10194000FFE7FFE70099012081F84400009981F842
:101950004500009981F84600009981F84700FFE7AB
:101960000099012081F83D0000208DF80700FFE775
:101970009DF8070002B080BD82B001900198006818
:1019800043F20041C4F20101884210D1FFE7FFE7B2
:1019900041F26000C4F20200016841F400510160AC
:1019A000006800F4005000900098FFE7FFE702B0E5
:1019B0007047000080B586B00490039100208DF838
:1019C0000B00FFE7049890F83C00012804D1FFE7E2
:1019D00002208DF81700D3E00499012081F83C0023
:1019E000FFE7FFE70499022081F83D0004980068B2
:1019F0008068019001984FF68871CFF6CE7108404B
:101A00000190019820F47F400190019804990968A1
:101A10008860039800680090002800F09780FFE736
:101A20000098102800F09280FFE70098202800F02E
:101A30008D80FFE70098302800F08880FFE700984D
:101A4000402876D0FFE70098502858D0FFE700984C
:101A5000602861D0FFE7009870282CD0FFE700983D
:101A6000B0F5805F26D0FFE70098B0F5005F37D073
:101A7000FFE70098B0F1101F68D0FFE70098202121
:101A8000C0F21001884261D0FFE700983021C0F217
:101A9000100188425AD0FFE700984021C0F210019F
:101AA000884253D0FFE700987021C0F210018842AD
:101AB0004CD052E055E004980068039B5A6899683E
:101AC000DB6800F059FC0498006880680190019878
:101AD00040F077000190019804990968886040E01F
:101AE00004980068039B5A689968DB6800F044FC1E
:101AF00004980168886840F48040886031E0049868
:101B00000068039A5168D26801F014F804980068DC
:101B1000502100F04BFC24E004980068039A5168BF
:101B2000D26801F05DF804980068602100F03EFC86
:101B300017E004980068039A5168D26800F0FAFF31
:101B400004980068402100F031FC0AE00498006825
:101B50000399096800F02AFC03E001208DF80B00CE
:101B6000FFE70499012081F83D00FFE70499002078
:101B700081F83C00FFE79DF80B008DF81700FFE7A8
:101B80009DF8170006B080BD80B588B00790002092
:101B9000069005900490039002900798006843F225
:101BA0000041C4F20101884221D1FFE7FFE741F281
:101BB0004C00C4F20200016841F0040101600068B9
:101BC00000F0040001900198FFE74FF48860029054
:101BD000022003900020049005900420069040F617
:101BE0000000C4F6000002A9FEF7ECFBFFE708B016
:101BF00080BD000080B586B0049003910292002061
:101C00008DF80700FFE7049890F83C00012804D104
:101C1000FFE702208DF81700C0E00499012081F849
:101C20003C00FFE7FFE702980090142800F2A7802D
:101C30000099DFE801F00BA4A4A424A4A4A43EA46A
:101C4000A4A457A4A4A471A4A4A48A00049800681E
:101C5000039900F0C3FB04980168886940F008000C
:101C6000886104980168886920F0040088610398FD
:101C700002690498016888691043886183E00498C8
:101C80000068039900F056FC04980168886940F4E4
:101C90000060886104980168886920F48060886128
:101CA0000398026904980168886940EA0220886103
:101CB00069E004980068039900F0F6FC0498016854
:101CC000C86940F00800C86104980168C86920F03C
:101CD0000400C8610398026904980168C869104348
:101CE000C86150E004980068039900F095FD0498DD
:101CF0000168C86940F40060C86104980168C86957
:101D000020F48060C8610398026904980168C8697A
:101D100040EA0220C86136E004980068039900F0A8
:101D200035FE04980168086D40F0080008650498C5
:101D30000168086D20F004000865039802690498A2
:101D40000168086D104308651DE004980068039958
:101D500000F086FE04980168086D40F40060086594
:101D600004980168086D20F4806008650398026992
:101D700004980168086D40EA0220086503E001202C
:101D80008DF80700FFE7FFE70499002081F83C0089
:101D9000FFE79DF807008DF81700FFE79DF8170093
:101DA00006B080BD80B582B00090009820B9FFE7F2
:101DB00001208DF8070045E0009890F83D0040B9FB
:101DC000FFE70099002081F83C00009800F03EF801
:101DD000FFE70099022081F83D00009951F8040BBB
:101DE00000F004FA0099012081F84800FFE700990B
:101DF000012081F83E00009981F83F00009981F8A8
:101E00004000009981F84100009981F84200009952
:101E100081F84300FFE7FFE70099012081F84400C3
:101E2000009981F84500009981F84600009981F8F1
:101E30004700FFE70099012081F83D0000208DF860
:101E40000700FFE79DF8070002B080BD81B0009059
:101E500001B07047FFE7FEE783B0FFE741F24C00B7
:101E6000C4F20200016841F020010160006800F046
:101E7000200002900298FFE7FFE741F24C00C4F215
:101E80000200016841F004010160006800F00400F4
:101E900001900198FFE7FFE741F24C00C4F2020015
:101EA000016841F001010160006800F0010000904C
:101EB0000098FFE703B0704780B59EB00020019006
:101EC0001D901C901B901A901990189017901690C6
:101ED00015901490139012901190109003A8342133
:101EE000FEF700FA019940F27000C2F20000029081
:101EF00043F20042C4F20102026001224260202249
:101F0000826040F2FF72C26001610F214161802155
:101F10008161FFF7DDFC18B1FFE7FEF74BFAFFE741
:101F20004FF480501A9040F27000C2F200001AA9DB
:101F3000FFF740FD18B1FFE7FEF73CFAFFE740F27C
:101F40007000C2F20000FFF72DFF18B1FFE7FEF7A7
:101F500031FAFFE7002017901890199040F27000B6
:101F6000C2F2000017A9FFF713FC18B1FFE7FEF754
:101F700021FAFFE760201090002211921292139232
:101F800014921592169240F27000C2F2000010A94D
:101F9000FFF730FE18B1FFE7FEF70CFAFFE700206D
:101FA00000900390049005909521069107904FF4BE
:101FB0000051089109900A900B904FF000710C911C
:101FC0000D900E900F9040F27000C2F2000003A935
:101FD000FFF746FB18B1FFE7FEF7ECF9FFE740F229
:101FE0007000C2F20000FFF7CFFD1EB080BD000000
:101FF000FFE7FEE7FFE7FEE788B00790069105924E
:10200000079800F0070004900498C0F10700052825
:1020100003D3FFE70420019004E00498C0F1070017
:102020000190FFE70198039004980430062803D834
:10203000FFE70020009003E0049803380090FFE7DA
:102040000098029006980399012202FA01F10139E1
:102050000840029B984005999A40013A1140084374
:1020600008B070477047000086B041F20C00C4F21F
:102070000200016801F0030104910068C1B201206F
:1020800000EB1110029004980090022815D0FFE791
:102090000098032812D1FFE7029941F20020C0F214
:1020A0007A00B0FBF1F041F20C01C4F202010968C0
:1020B000C1F306214843059011E0FFE7029942F27F
:1020C0000040C0F2F400B0FBF1F041F20C01C4F2A8
:1020D00002010968C1F3062148430590FFE741F278
:1020E0000C00C4F20200006800F0C061022000EBA6
:1020F0001160039005980399B0FBF1F001900198ED
:1021000006B070477047000080B582B0009000981C
:102110000138B0F1807F03D3FFE70120019019E07F
:10212000009801384EF21401CEF2000108604FF021
:10213000FF300F2100F0BEFD4EF21801CEF200017B
:10214000002008604EF21002CEF20002072111605A
:102150000190FFE7019802B080BD000080B5FEF756
:10216000F7FA80BD80B594B006A800903821FEF73C
:10217000B9F8002005900490039002900190FEF7BA
:1021800095FB0098012106914FF4803107910221BF
:102190000D9103220E920F915522109211911291DE
:1021A0001391FEF779FE18B1FFE7FEF703F9FFE799
:1021B0000F200190032002900020039004900590CE
:1021C00001A80421FEF756FC18B1FFE7FEF7F2F86C
:1021D000FFE714B080BD00004EF68851CEF200013A
:1021E000086840F4700008607047000083B00290F7
:1021F0000191029800680090029842F60041C4F2F2
:10220000010188421DD0FFE70298B0F1804F18D03D
:10221000FFE7029840F20041C4F20001884210D06A
:10222000FFE7029840F60001C4F20001884208D09E
:10223000FFE7029843F20041C4F2010188420AD14B
:10224000FFE7009820F07000009001984168009826
:1022500008430090FFE7029842F60041C4F20101F2
:10226000884235D0FFE70298B0F1804F30D0FFE7C9
:10227000029840F20041C4F20001884228D0FFE7F2
:10228000029840F60001C4F20001884220D0FFE726
:10229000029843F20041C4F20101884218D0FFE7DE
:1022A000029844F20001C4F20101884210D0FFE715
:1022B000029844F20041C4F20101884208D0FFE7CD
:1022C000029844F60001C4F2010188420AD1FFE7F6
:1022D000009820F4407000900198C168009808436D
:1022E0000090FFE7009820F08000019949690843B9
:1022F0000090019880680299C8620198006802996C
:102300008862029842F60041C4F20101884220D05E
:10231000FFE7029843F20041C4F20101884218D05D
:10232000FFE7029844F20001C4F20101884210D094
:10233000FFE7029844F20041C4F20101884208D04C
:10234000FFE7029844F60001C4F20101884205D17A
:10235000FFE70198006902990863FFE7029908689E
:1023600040F0040008600299012048610098029939
:10237000086003B07047000085B00490039102929A
:102380000193049880680090009820F47F400090AA
:1023900003980299019A41EA0221014300980843F7
:1023A000009000980499886005B0704783B002904F
:1023B000019102988068009000984FF68F71CFF6D7
:1023C000CF710840009001980099084340F0070041
:1023D000009000980299886003B0704785B004901F
:1023E00003910498006A01900499086A20F00100A2
:1023F00008620498406800900498806902900298EE
:102400004FF68F71CFF6FE7108400290029820F0CF
:102410000300029003980168029808430290019813
:1024200020F0020001900398816801980843019010
:10243000049842F60041C4F20101884220D0FFE72F
:10244000049843F20041C4F20101884218D0FFE72A
:10245000049844F20001C4F20101884210D0FFE761
:10246000049844F20041C4F20101884208D0FFE719
:10247000049844F60001C4F2010188420FD1FFE73D
:102480000499086A20F004000862019820F008000E
:1024900001900398C168019808430190FFE70498F0
:1024A00042F60041C4F20101884220D0FFE70498BF
:1024B00043F20041C4F20101884218D0FFE70498BA
:1024C00044F20001C4F20101884210D0FFE70498F1
:1024D00044F20041C4F20101884208D0FFE70498A9
:1024E00044F60001C4F20101884213D1FFE70098CD
:1024F00020F480700090009820F400700090039801
:102500004169009808430090039881690098084346
:102510000090FFE700980499486002980499886148
:10252000039840680499486301980499086205B0CB
:102530007047000085B0049003910498006A0190F0
:102540000499086A20F0100008620498406800901E
:10255000049880690290029848F6FF71CFF6FF61F7
:1025600008400290029820F440700290039801689D
:10257000029840EA01200290019820F0200001908A
:1025800003988168019840EA01100190049842F68E
:102590000041C4F20101884229D0FFE7049843F2C8
:1025A0000041C4F20101884221D0FFE7049844F2BF
:1025B0000001C4F20101884203D1FFE70020B0B955
:1025C000FFE7049844F20041C4F20101884203D1BC
:1025D000FFE7002058B9FFE7049844F60001C4F271
:1025E0000101884213D1FFE7012080B9FFE7049978
:1025F000086A20F040000862019820F080000190F5
:102600000398C168019840EA01100190FFE704981F
:1026100042F60041C4F20101884220D0FFE704984D
:1026200043F20041C4F20101884218D0FFE7049848
:1026300044F20001C4F20101884210D0FFE704987F
:1026400044F20041C4F20101884208D0FFE7049837
:1026500044F60001C4F20101884215D1FFE7009859
:1026600020F480600090009820F4006000900398AF
:102670004169009840EA81000090039881690098C0
:1026800040EA81000090FFE70098049948600298B2
:1026900004998861039840680499886301980499B3
:1026A000086205B07047000085B00490039104985B
:1026B000006A01900499086A20F480700862049806
:1026C000406800900498C069029002984FF68F719C
:1026D000CFF6FE7108400290029820F003000290AD
:1026E00003980168029808430290019820F4007052
:1026F000019003988168019840EA012001900498B4
:1027000042F60041C4F20101884229D0FFE7049853
:1027100043F20041C4F20101884221D0FFE704984E
:1027200044F20001C4F20101884203D1FFE7002016
:10273000B0B9FFE7049844F20041C4F201018842B5
:1027400003D1FFE7002058B9FFE7049844F60001E1
:10275000C4F20101884213D1FFE7012080B9FFE7ED
:102760000499086A20F480600862019820F40060EF
:1027700001900398C168019840EA01200190FFE7A9
:10278000049842F60041C4F20101884220D0FFE7DC
:10279000049843F20041C4F20101884218D0FFE7D7
:1027A000049844F20001C4F20101884210D0FFE70E
:1027B000049844F20041C4F20101884208D0FFE7C6
:1027C000049844F60001C4F20101884215D1FFE7E4
:1027D000009820F480500090009820F40050009061
:1027E00003984169009840EA0110009003988169BC
:1027F000009840EA01100090FFE7009804994860B3
:1028000002980499C861039840680499C8630198C4
:102810000499086205B0704785B00490039104984C
:10282000006A01900499086A20F4805008620498B4
:10283000406800900498C0690290029848F6FF71C1
:10284000CFF6FF6108400290029820F44070029099
:1028500003980168029840EA01200290019820F450
:102860000050019003988168019840EA013001907E
:10287000049842F60041C4F20101884229D0FFE7E2
:10288000049843F20041C4F20101884221D0FFE7DD
:10289000049844F20001C4F20101884203D1FFE729
:1028A0000020B0B9FFE7049844F20041C4F20101EE
:1028B000884203D1FFE7002058B9FFE7049844F6A7
:1028C0000001C4F20101884213D1FFE7012080B961
:1028D000FFE70499086A20F480400862019820F418
:1028E000004001900398C168019840EA01300190CE
:1028F000FFE7049842F60041C4F20101884220D06B
:10290000FFE7049843F20041C4F20101884218D065
:10291000FFE7049844F20001C4F20101884210D09C
:10292000FFE7049844F20041C4F20101884208D054
:10293000FFE7049844F60001C4F20101884215D172
:10294000FFE7009820F480400090009820F40040B9
:10295000009003984169009840EA81100090039824
:102960008169009840EA81100090FFE7009804997F
:10297000486002980499C861039840680499086403
:1029800001980499086205B07047000085B0049072
:1029900003910498006A01900499086A20F4803039
:1029A00008620498406800900498006D02900298B4
:1029B0004FF68F71CFF6FE710840029003980168C0
:1029C000029808430290019820F400300190039887
:1029D0008168019840EA01400190049842F6004164
:1029E000C4F20101884220D0FFE7049843F200417D
:1029F000C4F20101884218D0FFE7049844F20001B4
:102A0000C4F20101884210D0FFE7049844F200416B
:102A1000C4F20101884208D0FFE7049844F600019F
:102A2000C4F2010188420BD1FFE7009820F4803006
:102A3000009003984169009840EA01200090FFE768
:102A400000980499486002980499086503984068C2
:102A50000499886401980499086205B070470000E1
:102A600085B0049003910498006A01900499086A63
:102A700020F4801008620498406800900498006D6B
:102A80000290029848F6FF71CFF6FF61084002906D
:102A900003980168029840EA01200290019820F40E
:102AA0000010019003988168019840EA015001905C
:102AB000049842F60041C4F20101884220D0FFE7A9
:102AC000049843F20041C4F20101884218D0FFE7A4
:102AD000049844F20001C4F20101884210D0FFE7DB
:102AE000049844F20041C4F20101884208D0FFE793
:102AF000049844F60001C4F2010188420BD1FFE7BB
:102B0000009820F48020009003984169009840EAE2
:102B100081200090FFE7009804994860029804998A
:102B20000865039840680499C8640198049908628C
:102B300005B0704785B00490039102920498006A32
:102B400000900499086A20F001000862049842F697
:102B50000041C4F20101884220D0FFE7049843F20B
:102B60000041C4F20101884218D0FFE7049844F202
:102B70000001C4F20101884210D0FFE7049844F23A
:102B80000041C4F20101884208D0FFE7049844F6EE
:102B90000001C4F20101884206D1FFE70499086AE6
:102BA00020F004000862FFE7049880690190019812
:102BB00020F0F00001900299019840EA0110019084
:102BC000009820F00A0000900399009808430090B4
:102BD00001980499886100980499086205B07047CB
:102BE00085B00490039102920498006A00900499C1
:102BF000086A20F010000862049842F60041C4F20E
:102C00000101884229D0FFE7049843F20041C4F251
:102C10000101884221D0FFE7049844F20001C4F288
:102C20000101884203D1FFE70020B0B9FFE7049813
:102C300044F20041C4F20101884203D1FFE70020C1
:102C400058B9FFE7049844F60001C4F20101884234
:102C500009D1FFE7012030B9FFE70499086A20F0A5
:102C600040000862FFE7049880690190019820F411
:102C7000704001900299019840EA0130019000985B
:102C800020F0A00000900399009840EA0110009005
:102C900001980499886100980499086205B070470A
:102CA000FFE7FEE74EF60C50CEF200000068C0F3DE
:102CB0000220704782B08DF8070000919DF907004F
:102CC00000280AD4FFE7009800019DF907104EF292
:102CD0000042CEF2000288540BE0009800019DF8FB
:102CE000071001F00F014EF61452CEF20002885484
:102CF000FFE702B07047000083B00290029800F036
:102D0000070000904EF60C51CEF2000108680190C9
:102D100001984FF6FF02104001900198009A40EA96
:102D200002200022C0F2FA5210430190019808607C
:102D300003B0704780B582B000200190FDF716FD0A
:102D4000FFF710FAFFF788F8FFF7B6F8FFE7FEE79E
:102D5000F1EE100A4FF6FF71C0F2C03120EA010017
:102D600040F04070E1EE100A7047000000000000E3
:102D7000000001020304060708090000A02D000856
:102D800000000020100000003C020008B02D0008E8
:102D900010000020B00600005C02000800000000E7
:102DA0000024F400010000001000000000000000FA
:04000005080001D915
:00000001FF
